:10000000830100308A003B28E60003088301E500F5
:100010002B088100AA0AAC0A00308A002C081F397C
:10002000142086000B1135288207083409340A345D
:100030000C340D340E340E340F340F340F340E34B0
:100040000E340D340C340A340934083406340534C3
:1000500003340234013401340034003400340134F8
:1000600001340234033405340634831265088300F6
:10007000E60E660E0900223084005A3051202030EE
:1000800084002230512083010730E400F730E30080
:100090005A308400633055208301622D04068001AC
:1000A000840A0406031D4E280034F00060208000FE
:1000B000840A040870060319003456288312E300EA
:1000C000E41B6B28641B732864088A006308E30A36
:1000D0000319E40A82008313641883176308E30A90
:1000E0008400000808008207F6348234A8346034A3
:0800F00086346834FA34003450
:10046C0083123B232C3A831203190800372A8B1270
:10047C0083169B001C141A088B1683120800542A2E
:10048C004830D6004C2A8312570897228312D60A7A
:10049C0056033D22D700D708031D492A83120800B2
:1004AC00F401F5010310F30CF20C031C642A700820
:1004BC00F40771080318710AF5070310F00DF10D1C
:1004CC007208730403190034582A3030DB00DC0046
:1004DC00D60083125B08DA005C08DB005608DC00EF
:1004EC003B23D6002E3A03197F2A56082C3A031DBB
:1004FC006F2A831208003030DE00DF00D600831232
:10050C005E08DD005F08DE005608DF003B23D600E6
:10051C002E3A0319952A56082C3A031D852A831264
:10052C0008008511A11885158312D9000A30D8004E
:10053C00211CA22AAA30A32A5030B000B00BA42A46
:10054C0064008312591CAF2A8515A11CB32A85118E
:10055C00B32A8511A11CB32A851503148312D90C57
:10056C00D80B9E2A0800D601D701D801D900D22A6F
:10057C000A30F200F3015708F1005608F000562239
:10058C0058085907840000080F397407D6007508FD
:10059C000318750AD700D80A033083125802031CBB
:1005AC00BE2A5708F1005608F00008003B23BB0098
:1005BC003B23BC003B23BD003B23BE003B23BF00C1
:1005CC003B23C0003B23C10036223B23C2003B230C
:1005DC003B23C3003B23C4003B23C5003B23C60085
:1005EC003B23C7003B23C8003B23C9003B23CA0065
:1005FC0036223B23CB008312080041309722543023
:10060C0097220C30972204309722FF302D2B3B235E
:10061C00D60083169C18102B8312560883169B0049
:10062C0083123B2383169A0003108B1B03148B132A
:10063C0083161C1555309D00AA309D009C141C116E
:10064C0003188B179C18282B831256083D229722CF
:10065C0083123B23D600573A03190D2B83125608ED
:10066C00523A031D08003B232C2B422B6400061E20
:10067C00412B0510432B05148312051A472BA11887
:10068C003C2B051E4B2BA11C3C2BD7012830B0005A
:10069C00B00B4E2B0830D80064008312211C582B51
:1006AC00AA30592B5030B000B00B5A2B03108312C8
:1006BC00D70CA11C642B051A672B662B051E672B08
:1006CC00D717D80B522B211C6D2BAA306E2B503008
:1006DC00B000B00B6F2B8312570808006400D801D0
:1006EC00D90008305802831203180800A0135918B7
:1006FC00A0170310201F972BA80CA90CA01F882B48
:10070C000130892B0030F000031C8E2B01308F2B15
:10071C000030F0060319962B8430A8060830A90681
:10072C0003108312D90C211EA02B20302A0203188F
:10073C00A42B9B2B3A302A02031CA02BAA01A01F2E
:10074C00BA2BAE0AA11DC32B2E08053A031DC32BD1
:10075C00211EB52B20302A020318B92BB02B3A30AE
:10076C002A02031CB52BAA01211ABE2BC930BF2BA0
:10077C00E630AB001030A106AE01D80A08305802A2
:10078C00031808007C2B061F05148312D601D52BE9
:10079C00D701D22B6400D70A570FD02BD60A560F8D
:1007AC00CE2BD601D60A0319ED2B6400061E061FAC
:1007BC00E32BD601D60A0514E62B061FE62B0510F3
:1007CC00D701203057020318D82BD70AE72B1B3040
:1007DC003D22F000701CF42B2014F62B83122010F9
:1007EC001B3083123D22F0007019A01CFF2B201629
:0407FC00012C831237
:1008000020128312E003600F092C16303D22E00015
:100810008312E008031D172C20303D22F000F01B4E
:100820002010213083123D22F000F01B20121530E1
:1008300083123D22F000700F202C0330AD002A2CD3
:10084000153083123D222D06031D282CAD012A2CC4
:100850008312AD0A831205152116831681158112A4
:10086000C930831281008B17FF30A900A800201324
:100870001D303D22D6008312D6087E300319432C4A
:100880007423D6033B2C74232017A115AE01D60187
:10089000831256083D22D700D60A56080E3A031D89
:1008A000552CAD08031D552CD70A83125708742305
:1008B00056080E3A03196B2C482CD60A56033D22D3
:1008C000D7005608153A031D682C2D0B682CD70A43
:1008D00083125708742383125608153A0319742C8F
:1008E00001302D0203185D2C02302D02031C812CD7
:1008F000AE30742392307423883074238A3074238A
:1009000083122D08023A031D8C2C6430742340306E
:1009100074236330742383122D08033A031D972C2C
:1009200064307423403074236530742383122D089F
:10093000043A031DA22C66307423403074236730C0
:10094000742383122D08053A031DAC2C68307423E0
:100950004030742369307423033083127423F030E1
:100960007423211DD92C3E307423D60100308A0017
:1009700083125608732000380319CA2C00308A00ED
:100980008312D60A56037320F0000310700C8312F2
:100990007423B62C80308312D600D60A56033D222B
:1009A000D700D708831203194F2D570874238312D9
:1009B000CD2C213083127423D6010830560203183F
:1009C000E92C831256083B3E840000087423D60AA3
:1009D000DD2C1E3083123D227423D60109305602CD
:1009E0000318FA2C83125608433E8400000874232F
:1009F000D60AEE2C1F3083123D227423201C202D9A
:100A0000D6010330560203180D2D831256085A3EA4
:100A1000840000087423D60A012D2F30831274231A
:100A2000D601033056020318202D831256085D3E6E
:100A3000840000087423D60A03305602031C152DC7
:100A40008312201E3B2D2F307423413074233D3000
:100A500074232708303E74232608303E742325086B
:100A6000303E74232408303E74232308303E742320
:100A70002208303E742320308312D600442D831286
:100A800057087F3974238312D60A56033D22D700B4
:100A9000D70803194E2DE00803193F2D83122013A8
:100AA000FF30A906A8062908742328087423A11179
:100AB0007E3074237E30742305118B13061F0510BE
:100AC000831208000830D400D50164008B018B1616
:100AD00007309F0083168113F030860010308500A8
:100AE00083120510851405110530D200D30121149D
:100AF000A114CF01CF0A640083128515A1188511B6
:100B000053085204031D9A2D2115C923211154089D
:100B1000D2005508D3000310D40DD50D073055026F
:100B2000093003195402031C992D0830D4000730F2
:100B3000D5008312CE0FA22D0230A106A11CA22D3A
:100B40000130A1063B23CC00243A0319AD2D4C08FB
:100B5000213A031D7B2D03237B2D83123B23473A30
:100B6000031D7B2D83123B23503A031D7B2D8312E3
:100B7000861ABB2DA016CE01CF080319C12D452220
:100B80008312CF013B23CC00563A03192019D12DF3
:100B90003B23543A031D7B2D3B23473A03199B2FDC
:100BA0007B2D83124C08473A031DDF2D3B23473A28
:100BB000031D7B2D3B23413A0319E82E7B2D4C0866
:100BC000523A031D7B2D3B234D3A031D7B2D3B23C6
:100BD000433A031D7B2D83122015023085063B23EB
:100BE000D2080319D303D203B90A0319BA0A362269
:100BF0003B23563A0319022F831285143B23DC2230
:100C00003B23812236226B221C3083123D22003886
:100C100003191C2E3C30F200F3011C303D22F00081
:100C2000F101562275083A02031D182E7408390284
:100C3000031CE02EA016E02E5D308312B92270084E
:100C4000B7007108B8005A30B9227008B5007108B1
:100C5000B60019303D22F000F1017108803AF2002F
:100C60003808803A7202031D372E37087002031CC1
:100C7000492E3C308312F200F30118303D22F0007F
:100C8000F10156227408B3007508B400B101B20135
:100C9000BC2E14308312AF001A303D22F000F10157
:100CA0007108803AF2003808803A7202031D5A2E09
:100CB000370870020318622E173083123D22B300EA
:100CC000B401842E1A3083123D22F200F301173052
:100CD0003D22F000F10156227408F0007508F10081
:100CE0003808F3003708F200A8277408B300750825
:100CF000B4003808F3003708F200FA30F000003092
:100D0000F101A8277408AF07513083122F02031C8A
:100D10008B2E5030AF00610A0319620A031D942E16
:100D20003508E1003608E20061083502B1006208CA
:100D3000031C620A3602B200B21FA62E35086102F9
:100D4000B1003608031C360A6202B2003208803A4B
:100D5000F00080307002B53003193102031CBD2E43
:100D60006830F0000130F10031087002B100320843
:100D7000031C320A7102B20083122F08F000F10145
:100D80007108803AF2003208803A7202031DCA2EBE
:100D9000310870020318D32E00303A020B300319C9
:100DA00039020318DB2E3A083402031DD92E390804
:100DB00033020318E12EA0163508E1003608E200E0
:100DC0008312A01E7B2DC923A012B901BA017B2D6D
:100DD0008312A014023085063B232019F62ED20878
:100DE0000319D303D203B90A0319BA0A83123622AC
:100DF000DC223B233B23303A0319022F3B082C3AD9
:100E0000031D042F85107B2D831285143B2336226E
:100E10003622A201A301A401A501A601A7013B233B
:100E2000CD00CC012D3A0319042E83122608A70009
:100E30002508A6002408A5002308A4002208A30072
:100E40002130F200F3014D08F000F101D030F0073D
:100E50000318F10AFF30F10756227408D000750814
:100E6000D100003083125102643003195002031C78
:100E70005B2F9C30D007031CD103A30A0A30230246
:100E8000031C312FF630A307A40A0A302402031CE6
:100E9000312FF630A407A50A0A302502031C312F92
:100EA000F630A507A60A0A302602031C592FF63091
:100EB000A607A70A312F0A30F200F3015108F1000A
:100EC0005008F000BD2774084C07A2000A30220227
:100ED000031C892FF630A207A30A0A302302031C41
:100EE000892FF630A307A40A0A302402031C892F95
:100EF000F630A407A50A0A302502031C892FF63014
:100F0000A507A60A0A302602031C892FF630A60779
:100F1000A70A83125008CC000A304C02031C932FFE
:100F2000F630CC078C2F3B23CD002C3A0319042E2E
:100F30004D082E3A132F8312A0153B236B228312E8
:100F40003B234D3A8312031DA02F3B238122042E05
:100F5000F601F11FB22FF009F00A0319F103F109AC
:100F60007617F61773088039F606F31FBE2FF209BD
:100F7000F20A0319F303F309BE2FF601F401F50198
:100F800072087304031DC72FF001F10100341F30F4
:100F9000F6040310F60AF20DF30D031CCA2FF30C2E
:100FA000F20C73087102031DD72F72087002031C24
:100FB000DF2F7208F0027308031C730AF102F40DAC
:100FC000F50DF60BF61ACF2FF61FEB2FF409F40AE6
:100FD0000319F503F5097408F2007508F300761F8C
:100FE0000034F009F00A0319F103F1090034303438
:100FF000303430343034303430340134FF34FF3462
:02400E00663F0B
:104200008200A0008A00A400B000A20060009C0010
:104210009E0086008200980098006000AE00920028
:1042200088008A00620040006200030002005A0019
:10423000140003003200050000003C002F003E0087
:10424000000000000000000000000000000000006E
:10425000000000000000000000000000000000005E
:10426000000000000000000000000000000000004E
:10427000000000000000000000000000000000003E
:10428000000000000000000000000000000000002E
:10429000000000000000000000000000000000001E
:1042A000000000000000000000000000000000000E
:1042B00000000000000000000000000000000000FE
:1042C00000000000000000000000000000000000EE
:1042D00000000000000000000000000000000000DE
:1042E00000000000000000000000000000000000CE
:1042F00000000000000000000000000000000000BE
:10430000610070007200730074007200610063004D
:104310006B00650072002D0030002E00310032006D
:104320002D003100360066003600340038000000F1
:00000001FF
