:10000000830100308A003B28E60003088301E500F5
:100010002B088100AA0AAC0A00308A002C081F397C
:10002000142087000B1135288207083409340A345C
:100030000C340D340E340E340F340F340F340E34B0
:100040000E340D340C340A340934083406340534C3
:1000500003340234013401340034003400340134F8
:1000600001340234033405340634831265088300F6
:10007000E60E660E0900223084005A3051202030EE
:1000800084002230512083010730E400F730E30080
:100090005A308400633055208301592D04068001B5
:1000A000840A0406031D4E280034F00060208000FE
:1000B000840A040870060319003456288312E300EA
:1000C000E41B692864088A006308E30A0319E40A48
:1000D00082008313641883176308E30A840000080E
:1000E00008008207F6348234A834603486346634DB
:0400F000FA340034AA
:1004520083122E232C3A8312031908002A2A8B12A4
:1004620083169B001C141A088B1683120800472A55
:100472004830D6003F2A831257088A228312D60AAE
:1004820056033022D700D708031D3C2A83120800E6
:10049200F401F5010310F30CF20C031C572A700847
:1004A200F40771080318710AF5070310F00DF10D36
:1004B20072087304031900344B2A3030DB00DC006D
:1004C200D60083125B08DA005C08DB005608DC0009
:1004D2002E23D6002E3A0319722A56082C3A031DEF
:1004E200622A831208003030DE00DF00D600831259
:1004F2005E08DD005F08DE005608DF002E23D6000E
:100502002E3A0319882A56082C3A031D782A831298
:1005120008000712211A07168312D9000A30D800E0
:10052200A11D952AAA30962A5030B000B00B972A06
:1005320064008312591CA22A0716211EA62A07123A
:10054200A62A0712211EA62A071603148312D90C03
:10055200D80B912A0800D601D701D801D900C52AA3
:100562000A30F200F3015708F1005608F000492260
:1005720058085907840000080F397407D600750817
:100582000318750AD700D80A033083125802031CD5
:10059200B12A5708F1005608F00008002E23BB00CC
:1005A2002E23BC002E23BD002E23BE002E23BF000F
:1005B2002E23C0002E23C10029222E23C2002E2367
:1005C2002E23C3002E23C4002E23C5002E23C600D3
:1005D2002E23C7002E23C8002E23C9002E23CA00B3
:1005E20029222E23CB008312080041308A22543064
:1005F2008A220C308A2204308A22FF30202B2E23BA
:10060200D60083169C18032B8312560883169B0070
:1006120083122E2383169A0003108B1B03148B1351
:1006220083161C1555309D00AA309D009C141C1188
:1006320003188B179C181B2B8312560830228A2210
:1006420083122E23D600573A0319002B8312560821
:10065200523A031D08002E231F2B352B6400851CE4
:10066200342B2011362B20158312871A3A2B211A8C
:100672002F2B871E3E2B211E2F2BD7012830B00097
:10068200B00B412B0830D80064008312A11D4B2B04
:10069200AA304C2B5030B000B00B4D2B03108312FC
:1006A200D70C211E572B871A5A2B592B871E5A2BD0
:1006B200D717D80B452BA11D602BAA30612B5030C8
:1006C200B000B00B622B8312570808006400D801F7
:1006D200D900083058028312031808002111591852
:1006E20021150310A11C8A2BA80CA90C211D7B2B00
:1006F20001307C2B0030F000031C812B0130822B57
:100702000030F0060319892B8430A8060830A906A8
:1007120003108312D90CA11F932B20302A02031835
:10072200972B8E2B3A302A02031C932BAA01211DF0
:10073200AD2BAE0A211FB62B2E08053A031DB62B90
:10074200A11FA82B20302A020318AC2BA32B3A306E
:100752002A02031CA82BAA01A11BB12BC930B22B60
:10076200E630AB008030A106AE01D80A083058024C
:10077200031808006F2B13308A22D601560FC22BA2
:10078200CD2B8312D701C72B6400D70A570FC52B75
:10079200D60A560FC32BCE2B8312D601D60A0319C3
:1007A200E42B6400851C201EDA2BD601D60A201504
:1007B200DD2B201EDD2B2011D7012030570203181C
:1007C200CF2BD70ADE2B1B303022F000701CEB2B14
:1007D2002014ED2B831220101B3083123022F000E4
:1007E2007019A01CF62BA017F82B8312A0138312EA
:0E07F200E003600F002C16303022E00083126E
:10080000E008031D0E2C20303022F000F01B2010D9
:10081000213083123022F000F01BA0131530831218
:100820003022F000700F172C0330AD00212C153052
:10083000831230222D06031D1F2CAD01212C8312A3
:10084000AD0A83120515A117831681158112C930CF
:10085000831281008B17FF30A900A800A1101D3062
:100860003022D6008312D6087E3003193A2C672333
:10087000D603322C6723A1142117AE01D6018312AF
:1008800056083022D700D60A56080E3A031D4C2CC3
:10089000AD08031D4C2CD70A83125708672356084E
:1008A0000E3A0319622C3F2CD60A56033022D70089
:1008B0005608153A031D5F2C2D0B5F2CD70A8312A7
:1008C0005708672383125608153A03196B2C013019
:1008D0002D020318542C02302D02031C782CAE304C
:1008E000672392306723883067238A306723831217
:1008F0002D08023A031D832C6430672340306723A0
:100900006330672383122D08033A031D8E2C643055
:100910006723403067236530672383122D08043A2C
:10092000031D992C663067234030672367306723A7
:1009300083122D08053A031DA32C6830672340302D
:10094000672369306723033083126723F0306723FE
:10095000A11ED02C3E306723D60100308A008312BE
:100960005608712000380319C12C00308A00831208
:10097000D60A56037120F0000310700C831267230F
:10098000AD2C80308312D600D60A56033022D70011
:10099000D70883120319462D570867238312C42CE6
:1009A000213083126723D601083056020318E02C49
:1009B000831256083B3E840000086723D60AD42CD5
:1009C0001E30831230226723D601093056020318E5
:1009D000F12C83125608433E840000086723D60A90
:1009E000E52C1F30831230226723201C172DD601DF
:1009F000033056020318042D831256085A3E840011
:100A000000086723D60AF82C2F3083126723D601FB
:100A1000033056020318172D831256085D3E8400DA
:100A200000086723D60A03305602031C0C2D8312DC
:100A3000A01F322D2F306723413067233D306723BD
:100A40002708303E67232608303E67232508303EBE
:100A500067232408303E67232308303E672322089B
:100A6000303E672320308312D6003B2D8312570877
:100A70007F3967238312D60A56033022D700D7085E
:100A80000319452DE0080319362D8312A110FF30FC
:100A9000A906A806290867232808672321137E30A2
:100AA00067237E30672305118B1311308A221130A2
:100AB0008A2A0830D400D50164008B018B160A30D5
:100AC00098000730990083168113FF309700023099
:100AD000950020308700831220160A308316850087
:100AE00083122011051405110530D200D301A11580
:100AF0002116CF01CF0A640083120716211A0712AC
:100B000053085204031D9A2DA116BC23A1125408A8
:100B1000D2005508D3000310D40DD50D073055026F
:100B2000093003195402031C992D0830D4000730F2
:100B3000D5008312CE0FA22D1030A106211EA22DAA
:100B40000830A1062E23CC00243A0319AD2D4C0801
:100B5000213A031D7B2DF6227B2D83122E23473A4B
:100B6000031D7B2D83122E23503A031D7B2D8312F0
:100B70008519BB2D2114CE01CF080319C12D3822B0
:100B80008312CF012E23CC00563A0319A019D12D80
:100B90002E23543A031D7B2D2E23473A03199B2FF6
:100BA0007B2D83124C08473A031DDF2D2E23473A35
:100BB000031D7B2D2E23413A0319E82E7B2D4C0873
:100BC000523A031D7B2D2E234D3A031D7B2D2E23E0
:100BD000433A031D7B2D8312A015013085062E2379
:100BE000D2080319D303D203B90A0319BA0A292276
:100BF0002E23563A0319022F831205142E23CF22D7
:100C00002E23742229225E221C30831230220038C7
:100C100003191C2E3C30F200F3011C303022F0008E
:100C2000F101492275083A02031D182E7408390291
:100C3000031CE02E2114E02E5D308312AC227008DC
:100C4000B7007108B8005A30AC227008B5007108BE
:100C5000B60019303022F000F1017108803AF2003C
:100C60003808803A7202031D372E37087002031CC1
:100C7000492E3C308312F200F30118303022F0008C
:100C8000F10149227408B3007508B400B101B20142
:100C9000BC2E14308312AF001A303022F000F10164
:100CA0007108803AF2003808803A7202031D5A2E09
:100CB000370870020318622E173083123022B300F7
:100CC000B401842E1A3083123022F200F30117305F
:100CD0003022F000F10149227408F0007508F1009B
:100CE0003808F3003708F200A8277408B300750825
:100CF000B4003808F3003708F200FA30F000003092
:100D0000F101A8277408AF07513083122F02031C8A
:100D10008B2E5030AF00610A0319620A031D942E16
:100D20003508E1003608E20061083502B1006208CA
:100D3000031C620A3602B200B21FA62E35086102F9
:100D4000B1003608031C360A6202B2003208803A4B
:100D5000F00080307002B53003193102031CBD2E43
:100D60006830F0000130F10031087002B100320843
:100D7000031C320A7102B20083122F08F000F10145
:100D80007108803AF2003208803A7202031DCA2EBE
:100D9000310870020318D32E00303A020B300319C9
:100DA00039020318DB2E3A083402031DD92E390804
:100DB00033020318E12E21143508E1003608E20061
:100DC0008312211C7B2DBC232110B901BA017B2D7C
:100DD0008312A014013085062E23A019F62ED20806
:100DE0000319D303D203B90A0319BA0A83122922B9
:100DF000CF222E232E23303A0319022F3B082C3A00
:100E0000031D042F05107B2D831205142E23292288
:100E10002922A201A301A401A501A601A7012E2355
:100E2000CD00CC012D3A0319042E83122608A70009
:100E30002508A6002408A5002308A4002208A30072
:100E40002130F200F3014D08F000F101D030F0073D
:100E50000318F10AFF30F10749227408D000750821
:100E6000D100003083125102643003195002031C78
:100E70005B2F9C30D007031CD103A30A0A30230246
:100E8000031C312FF630A307A40A0A302402031CE6
:100E9000312FF630A407A50A0A302502031C312F92
:100EA000F630A507A60A0A302602031C592FF63091
:100EB000A607A70A312F0A30F200F3015108F1000A
:100EC0005008F000BD2774084C07A2000A30220227
:100ED000031C892FF630A207A30A0A302302031C41
:100EE000892FF630A307A40A0A302402031C892F95
:100EF000F630A407A50A0A302502031C892FF63014
:100F0000A507A60A0A302602031C892FF630A60779
:100F1000A70A83125008CC000A304C02031C932FFE
:100F2000F630CC078C2F2E23CD002C3A0319042E3B
:100F30004D082E3A132F831220172E235E22831280
:100F40002E234D3A8312031DA02F2E237422042E2C
:100F5000F601F11FB22FF009F00A0319F103F109AC
:100F60007617F61773088039F606F31FBE2FF209BD
:100F7000F20A0319F303F309BE2FF601F401F50198
:100F800072087304031DC72FF001F10100341F30F4
:100F9000F6040310F60AF20DF30D031CCA2FF30C2E
:100FA000F20C73087102031DD72F72087002031C24
:100FB000DF2F7208F0027308031C730AF102F40DAC
:100FC000F50DF60BF61ACF2FF61FEB2FF409F40AE6
:100FD0000319F503F5097408F2007508F300761F8C
:100FE0000034F009F00A0319F103F1090034303438
:100FF000303430343034303430340134FF34FF3462
:02400E00CA3BAB
:104200008200A0008A00A400B000A20060009C0010
:104210009E0086008200980098006000AE00920028
:1042200088008A00620040006200030002005A0019
:10423000140003003200050000003C002F003E0087
:10424000000000000000000000000000000000006E
:10425000000000000000000000000000000000005E
:10426000000000000000000000000000000000004E
:10427000000000000000000000000000000000003E
:10428000000000000000000000000000000000002E
:10429000000000000000000000000000000000001E
:1042A000000000000000000000000000000000000E
:1042B00000000000000000000000000000000000FE
:1042C00000000000000000000000000000000000EE
:1042D00000000000000000000000000000000000DE
:1042E00000000000000000000000000000000000CE
:1042F00000000000000000000000000000000000BE
:10430000610070007200730074007200610063004D
:104310006B00650072002D0030002E00310032006D
:104320002D003100360066003600330036000000F4
:00000001FF
