:10000000830100308A003B28E60003088301E500F5
:100010002B088100AA0AAC0A00308A002C081F397C
:10002000142086000B1135288207083409340A345D
:100030000C340D340E340E340F340F340F340E34B0
:100040000E340D340C340A340934083406340534C3
:1000500003340234013401340034003400340134F8
:1000600001340234033405340634831265088300F6
:10007000E60E660E0900223084005A3051202030EE
:1000800084002230512083010730E400F730E30080
:100090005A308400633055208301622D04068001AC
:1000A000840A0406031D4E280034F00060208000FE
:1000B000840A040870060319003456288312E300EA
:1000C000E41B692864088A006308E30A0319E40A48
:1000D00082008313641883176308E30A840000080E
:1000E00008008207F6348234A834603484346434DF
:1000F000FA34C234E034E434E634E834E434C2346C
:10010000C634D634CA34E4345A3460345C3462348D
:1001100064345A3462346C34CC346C3464347034A7
:020120000034A9
:10048A0083124A232C3A831203190800462A8B1234
:10049A0083169B001C141A088B1683120800632A01
:1004AA004830D6005B2A83125708A6228312D60A3E
:1004BA0056034C22D700D708031D582A8312080076
:1004CA00F401F5010310F30CF20C031C732A7008F3
:1004DA00F40771080318710AF5070310F00DF10DFE
:1004EA007208730403190034672A3030DB00DC0019
:1004FA00D60083125B08DA005C08DB005608DC00D1
:10050A004A23D6002E3A03198E2A56082C3A031D7E
:10051A007E2A831208003030DE00DF00D600831204
:10052A005E08DD005F08DE005608DF004A23D600B9
:10053A002E3A0319A42A56082C3A031D942A831228
:10054A0008008511A11885158312D9000A30D80030
:10055A00211CB12AAA30B22A5030B000B00BB32AFB
:10056A0064008312591CBE2A8515A11CC22A851152
:10057A00C22A8511A11CC22A851503148312D90C1B
:10058A00D80BAD2A0800D601D701D801D900E12A33
:10059A000A30F200F3015708F1005608F00065220C
:1005AA0058085907840000080F397407D6007508DF
:1005BA000318750AD700D80A033083125802031C9D
:1005CA00CD2A5708F1005608F00008004A23BB005C
:1005DA004A23BC004A23BD004A23BE004A23BF0067
:1005EA004A23C0004A23C10045224A23C2004A23A3
:1005FA004A23C3004A23C4004A23C5004A23C6002B
:10060A004A23C7004A23C8004A23C9004A23CA000A
:10061A0045224A23CB00831208004130A6225430D7
:10062A00A6220C30A6220430A6227F303C2B4A2375
:10063A00D60083169C181F2B8312560883169B001C
:10064A0083124A2383169A0003108B1B03148B13FD
:10065A0083161C1555309D00AA309D009C141C1150
:10066A0003188B179C18372B831256084C22A62284
:10067A0083124A23D600573A03191C2B83125608B1
:10068A00523A031D08004A233B2B512B6400061ED5
:10069A00502B0510522B05148312051A562BA1183C
:1006AA004B2B051E5A2BA11C4B2BD7012830B0000F
:1006BA00B00B5D2B0830D80064008312211C672B15
:1006CA00AA30682B5030B000B00B692B031083128C
:1006DA00D70CA11C732B051A762B752B051E762BAE
:1006EA00D717D80B612B211C7C2BAA307D2B5030BD
:1006FA00B000B00B7E2B8312570808006400D801A3
:10070A00D90008305802831203180800A013591898
:10071A00A0170310201FA62BA80CA90CA01F972B0B
:10072A000130982B0030F000031C9D2B01309E2BCA
:10073A000030F0060319A52B8430A8060830A90654
:10074A0003108312D90C211EAF2B20302A02031862
:10075A00B32BAA2B3A302A02031CAF2BAA01A01FE3
:10076A00C92BAE0AA11DD22B2E08053A031DD22B86
:10077A00211EC42B20302A020318C82BBF2B3A3063
:10078A002A02031CC42BAA01211ACD2BC930CE2B55
:10079A00E630AB001030A106AE01D80A0830580284
:1007AA00031808008B2B061F05148312D601E42BAD
:1007BA00D701E12B6400D70A570FDF2BD60A560F51
:1007CA00DD2BD601D60A0319FC2B6400061E061F70
:1007DA00F22BD601D60A0514F52B061FF52B0510A8
:1007EA00D701203057020318E72BD70AF62B1B3004
:0607FA004C22F000701C0F
:10080000032C2014052C831220101B3083124C2241
:10081000F0007019A01C0E2C2016102C8312201230
:100820008312E003600F182C16304C22E000831274
:10083000E008031D262C20304C22F000F01B201075
:10084000213083124C22F000F01B2012153083124D
:100850004C22F000700F2F2C0330AD00392C1530D6
:1008600083124C222D06031D372CAD01392C831227
:10087000AD0A831205152116831681158112C93020
:10088000831281008B17FF30A900A80020131D30B0
:100890004C22D6008312D6087E300319522C8323B3
:1008A000D6034A2C83232017A115AE01D60183124B
:1008B00056084C22D700D60A56080E3A031D642C5F
:1008C000AD08031D642CD70A8312570883235608EA
:1008D0000E3A03197A2C572CD60A56034C22D7000D
:1008E0005608153A031D772C2D0B772CD70A831247
:1008F0005708832383125608153A0319832C0130B5
:100900002D0203186C2C02302D02031C902CAE30EB
:10091000832392308323883083238A308323831276
:100920002D08023A031D9B2C64308323403083231F
:100930006330832383122D08033A031DA62C6430F1
:100940008323403083236530832383122D08043AA8
:10095000031DB12C6630832340308323673083230B
:1009600083122D08053A031DBB2C683083234030C9
:10097000832369308323033083128323F03083235E
:10098000211DD92C3E308323D60100308A008312EA
:1009900056087120003803194E2D00308A0083124A
:1009A000D60A56037120F0000310700C83128323C3
:1009B000C52C213083128323D60108305602031838
:1009C000E92C831256083B3E840000088323D60A94
:1009D000DD2C1E3083124C228323D60109305602AF
:1009E0000318FA2C83125608433E84000008832320
:1009F000D60AEE2C1F3083124C228323201C202D7C
:100A0000D6010330560203180D2D831256085A3EA4
:100A1000840000088323D60A012D2F3083128323FC
:100A2000D601033056020318202D831256085D3E6E
:100A3000840000088323D60A03305602031C152DB8
:100A40008312201E3B2D2F308323413083233D30E2
:100A500083232708303E83232608303E832325083E
:100A6000303E83232408303E83232308303E8323F3
:100A70002208303E832320308312D600442D831277
:100A800057087F3983238312D60A56034C22D70096
:100A9000D70803194E2DE00803193F2D83122013A8
:100AA000FF30A906A8062908832328088323A1115B
:100AB0007E3083237E30832305118B13061F0510A0
:100AC000831208000830D400D50164008B018B1616
:100AD00007309F0083168113F030860010308500A8
:100AE00083120510851405110530D200D30121149D
:100AF000A114CF01CF0A640083128515A1188511B6
:100B000053085204031D9A2D2115D823211154088E
:100B1000D2005508D3000310D40DD50D073055026F
:100B2000093003195402031C992D0830D4000730F2
:100B3000D5008312CE0FA22D0230A106A11CA22D3A
:100B40000130A1064A23CC00243A0319AD2D4C08EC
:100B5000213A031D7B2D12237B2D83124A23473A12
:100B6000031D7B2D83124A23503A031D7B2D8312D4
:100B7000861ABB2DA016CE01CF080319C12D542211
:100B80008312CF014A23CC00563A03192019D12DE4
:100B90004A23543A031D7B2D4A23473A03199B2FBE
:100BA0007B2D83124C08473A031DDF2D4A23473A19
:100BB000031D7B2D4A23413A0319E82E7B2D4C0857
:100BC000523A031D7B2D4A234D3A031D7B2D4A23A8
:100BD000433A031D7B2D83122015023085064A23DC
:100BE000D2080319D303D203B90A0319BA0A45225A
:100BF0004A23563A0319022F831285144A23EB2203
:100C00004A23902245227A221C3083124C2200383B
:100C100003191C2E3C30F200F3011C304C22F00072
:100C2000F101652275083A02031D182E7408390275
:100C3000031CE02EA016E02E5D308312C82270083F
:100C4000B7007108B8005A30C8227008B5007108A2
:100C5000B60019304C22F000F1017108803AF20020
:100C60003808803A7202031D372E37087002031CC1
:100C7000492E3C308312F200F30118304C22F00070
:100C8000F10165227408B3007508B400B101B20126
:100C9000BC2E14308312AF001A304C22F000F10148
:100CA0007108803AF2003808803A7202031D5A2E09
:100CB000370870020318622E173083124C22B300DB
:100CC000B401842E1A3083124C22F200F301173043
:100CD0004C22F000F10165227408F0007508F10063
:100CE0003808F3003708F200A8277408B300750825
:100CF000B4003808F3003708F200FA30F000003092
:100D0000F101A8277408AF07513083122F02031C8A
:100D10008B2E5030AF00610A0319620A031D942E16
:100D20003508E1003608E20061083502B1006208CA
:100D3000031C620A3602B200B21FA62E35086102F9
:100D4000B1003608031C360A6202B2003208803A4B
:100D5000F00080307002B53003193102031CBD2E43
:100D60006830F0000130F10031087002B100320843
:100D7000031C320A7102B20083122F08F000F10145
:100D80007108803AF2003208803A7202031DCA2EBE
:100D9000310870020318D32E00303A020B300319C9
:100DA00039020318DB2E3A083402031DD92E390804
:100DB00033020318E12EA0163508E1003608E200E0
:100DC0008312A01E7B2DD823A012B901BA017B2D5E
:100DD0008312A014023085064A232019F62ED20869
:100DE0000319D303D203B90A0319BA0A831245229D
:100DF000EB224A234A23303A0319022F3B082C3AAC
:100E0000031D042F85107B2D831285144A23452250
:100E10004522A201A301A401A501A601A7014A231D
:100E2000CD00CC012D3A0319042E83122608A70009
:100E30002508A6002408A5002308A4002208A30072
:100E40002130F200F3014D08F000F101D030F0073D
:100E50000318F10AFF30F10765227408D000750805
:100E6000D100003083125102643003195002031C78
:100E70005B2F9C30D007031CD103A30A0A30230246
:100E8000031C312FF630A307A40A0A302402031CE6
:100E9000312FF630A407A50A0A302502031C312F92
:100EA000F630A507A60A0A302602031C592FF63091
:100EB000A607A70A312F0A30F200F3015108F1000A
:100EC0005008F000BD2774084C07A2000A30220227
:100ED000031C892FF630A207A30A0A302302031C41
:100EE000892FF630A307A40A0A302402031C892F95
:100EF000F630A407A50A0A302502031C892FF63014
:100F0000A507A60A0A302602031C892FF630A60779
:100F1000A70A83125008CC000A304C02031C932FFE
:100F2000F630CC078C2F4A23CD002C3A0319042E1F
:100F30004D082E3A132F8312A0154A237A228312CA
:100F40004A234D3A8312031DA02F4A239022042ED8
:100F5000F601F11FB22FF009F00A0319F103F109AC
:100F60007617F61773088039F606F31FBE2FF209BD
:100F7000F20A0319F303F309BE2FF601F401F50198
:100F800072087304031DC72FF001F10100341F30F4
:100F9000F6040310F60AF20DF30D031CCA2FF30C2E
:100FA000F20C73087102031DD72F72087002031C24
:100FB000DF2F7208F0027308031C730AF102F40DAC
:100FC000F50DF60BF61ACF2FF61FEB2FF409F40AE6
:100FD0000319F503F5097408F2007508F300761F8C
:100FE0000034F009F00A0319F103F1090034303438
:100FF000303430343034303430340134FF34FF3462
:02400E00663F0B
:104200008200A0008A00A400B000A20060009C0010
:104210009E0086008200980098006000AE00920028
:1042200088008A00620040006200030002005A0019
:10423000140003003200050000003C002F003E0087
:10424000000000000000000000000000000000006E
:10425000000000000000000000000000000000005E
:10426000000000000000000000000000000000004E
:10427000000000000000000000000000000000003E
:10428000000000000000000000000000000000002E
:10429000000000000000000000000000000000001E
:1042A000000000000000000000000000000000000E
:1042B00000000000000000000000000000000000FE
:1042C00000000000000000000000000000000000EE
:1042D00000000000000000000000000000000000DE
:1042E00000000000000000000000000000000000CE
:1042F00000000000000000000000000000000000BE
:00000001FF
